{
  "transactions": [
    {
      "hash": "0x5f5f4269b73af661f647766d7a896dc897b0885409bc5944f6752ffc96fa2579",
      "transactionType": "CALL",
      "contractName": null,
      "contractAddress": "0xc81c564340e25dd173f87e28e8cfee0e89243e18",
      "function": "transfer(address,uint256)",
      "arguments": [
        "0xc81C564340e25DD173F87E28E8cfEe0E89243E18",
        "100000000000000000000"
      ],
      "transaction": {
        "from": "0x23e9eb0cf83fed08b86768bd6046c9c526d8a571",
        "to": "0xc81c564340e25dd173f87e28e8cfee0e89243e18",
        "gas": "0x12a46",
        "value": "0x0",
        "input": "0xa9059cbb000000000000000000000000c81c564340e25dd173f87e28e8cfee0e89243e180000000000000000000000000000000000000000000000056bc75e2d63100000",
        "nonce": "0x9",
        "chainId": "0xaa36a7"
      },
      "additionalContracts": [],
      "isFixedGasLimit": false
    }
  ],
  "receipts": [
    {
      "status": "0x1",
      "cumulativeGasUsed": "0x1b7da24",
      "logs": [
        {
          "address": "0xc81c564340e25dd173f87e28e8cfee0e89243e18",
          "topics": [
            "0xddf252ad1be2c89b69c2b068fc378daa952ba7f163c4a11628f55a4df523b3ef",
            "0x00000000000000000000000023e9eb0cf83fed08b86768bd6046c9c526d8a571",
            "0x000000000000000000000000c81c564340e25dd173f87e28e8cfee0e89243e18"
          ],
          "data": "0x0000000000000000000000000000000000000000000000056bc75e2d63100000",
          "blockHash": "0xf82dbe010e88f828674d8c6a335ff7e988f72c58a123cc72c94385cb4b90a01e",
          "blockNumber": "0x94d589",
          "blockTimestamp": "0x692f0e50",
          "transactionHash": "0x5f5f4269b73af661f647766d7a896dc897b0885409bc5944f6752ffc96fa2579",
          "transactionIndex": "0x3e",
          "logIndex": "0x1e1",
          "removed": false
        }
      ],
      "logsBloom": "0x00000000000000000000000010000000000000000000000000000000000000000000000000000000000000000000000000000000000000000000000000010000000000000000000000000008000000000000000000000100000000000000000000000000000000000000100000000000000000000000000000000010000000000000100000000000000000000000100000000000000800000000000000000000000000000000000000000000000000000000000000000002000000000000000000000002000000000000000000000000000000000000000000000000000000000000000000000000000000000000000000000000010000000000000000000000",
      "type": "0x2",
      "transactionHash": "0x5f5f4269b73af661f647766d7a896dc897b0885409bc5944f6752ffc96fa2579",
      "transactionIndex": "0x3e",
      "blockHash": "0xf82dbe010e88f828674d8c6a335ff7e988f72c58a123cc72c94385cb4b90a01e",
      "blockNumber": "0x94d589",
      "gasUsed": "0xcbf3",
      "effectiveGasPrice": "0xf4278",
      "from": "0x23e9eb0cf83fed08b86768bd6046c9c526d8a571",
      "to": "0xc81c564340e25dd173f87e28e8cfee0e89243e18",
      "contractAddress": null
    }
  ],
  "libraries": [],
  "pending": [],
  "returns": {},
  "timestamp": 1764691537504,
  "chain": 11155111,
  "commit": null
}