{
  "transactions": [
    {
      "hash": "0x4ef4b497532945f83e908716e9f8879040e136b19541d53256baafccb1672bc9",
      "transactionType": "CALL",
      "contractName": null,
      "contractAddress": "0xa306de4195a2f2f09796ad7f40568ccea370fb84",
      "function": "release(address)",
      "arguments": [
        "0x0fB0B765D0857759eF1A8Bd6bDa244773C563FCb"
      ],
      "transaction": {
        "from": "0x23e9eb0cf83fed08b86768bd6046c9c526d8a571",
        "to": "0xa306de4195a2f2f09796ad7f40568ccea370fb84",
        "gas": "0xe198",
        "value": "0x0",
        "input": "0x191655870000000000000000000000000fb0b765d0857759ef1a8bd6bda244773c563fcb",
        "nonce": "0x26",
        "chainId": "0xaa36a7"
      },
      "additionalContracts": [],
      "isFixedGasLimit": false
    },
    {
      "hash": "0x6c32d1aa2180b35df3ec300b9d9b245584d7233e28332793cfef7327974c9747",
      "transactionType": "CALL",
      "contractName": null,
      "contractAddress": "0x935665f89387c3f4ec5f0e9071b9d6259634a9f1",
      "function": "release(address)",
      "arguments": [
        "0x0fB0B765D0857759eF1A8Bd6bDa244773C563FCb"
      ],
      "transaction": {
        "from": "0x23e9eb0cf83fed08b86768bd6046c9c526d8a571",
        "to": "0x935665f89387c3f4ec5f0e9071b9d6259634a9f1",
        "gas": "0xe198",
        "value": "0x0",
        "input": "0x191655870000000000000000000000000fb0b765d0857759ef1a8bd6bda244773c563fcb",
        "nonce": "0x27",
        "chainId": "0xaa36a7"
      },
      "additionalContracts": [],
      "isFixedGasLimit": false
    },
    {
      "hash": "0x40c11ca94c72d02e30a79a30af8f6c8104c6a2a478bf2e145f1df1ade4205c8d",
      "transactionType": "CALL",
      "contractName": null,
      "contractAddress": "0xf50f83a2addb8e419d68211f0b83dd920ee912a1",
      "function": "release(address)",
      "arguments": [
        "0x0fB0B765D0857759eF1A8Bd6bDa244773C563FCb"
      ],
      "transaction": {
        "from": "0x23e9eb0cf83fed08b86768bd6046c9c526d8a571",
        "to": "0xf50f83a2addb8e419d68211f0b83dd920ee912a1",
        "gas": "0xf505",
        "value": "0x0",
        "input": "0x191655870000000000000000000000000fb0b765d0857759ef1a8bd6bda244773c563fcb",
        "nonce": "0x28",
        "chainId": "0xaa36a7"
      },
      "additionalContracts": [],
      "isFixedGasLimit": false
    },
    {
      "hash": "0xc845bb21e0e740721260b8d0bda37074ff1c467cb28d41499788b8e097ee3ef1",
      "transactionType": "CALL",
      "contractName": null,
      "contractAddress": "0x023042f45e1246d0afe0182824c08f2b6c8df79e",
      "function": "release(address)",
      "arguments": [
        "0x0fB0B765D0857759eF1A8Bd6bDa244773C563FCb"
      ],
      "transaction": {
        "from": "0x23e9eb0cf83fed08b86768bd6046c9c526d8a571",
        "to": "0x023042f45e1246d0afe0182824c08f2b6c8df79e",
        "gas": "0xecfc",
        "value": "0x0",
        "input": "0x191655870000000000000000000000000fb0b765d0857759ef1a8bd6bda244773c563fcb",
        "nonce": "0x29",
        "chainId": "0xaa36a7"
      },
      "additionalContracts": [],
      "isFixedGasLimit": false
    }
  ],
  "receipts": [
    {
      "status": "0x1",
      "cumulativeGasUsed": "0x159d633",
      "logs": [
        {
          "address": "0xa306de4195a2f2f09796ad7f40568ccea370fb84",
          "topics": [
            "0xc0e523490dd523c33b1878c9eb14ff46991e3f5b2cd33710918618f2a39cba1b",
            "0x0000000000000000000000000fb0b765d0857759ef1a8bd6bda244773c563fcb"
          ],
          "data": "0x0000000000000000000000000000000000000000000000000000000000000000",
          "blockHash": "0xd375a28f47270edca6f4292fea448d20d18e525d6c68286e97528ab6a07231a5",
          "blockNumber": "0x94eb02",
          "blockTimestamp": "0x69301020",
          "transactionHash": "0x4ef4b497532945f83e908716e9f8879040e136b19541d53256baafccb1672bc9",
          "transactionIndex": "0x72",
          "logIndex": "0x1cc",
          "removed": false
        },
        {
          "address": "0x0fb0b765d0857759ef1a8bd6bda244773c563fcb",
          "topics": [
            "0xddf252ad1be2c89b69c2b068fc378daa952ba7f163c4a11628f55a4df523b3ef",
            "0x000000000000000000000000a306de4195a2f2f09796ad7f40568ccea370fb84",
            "0x00000000000000000000000023e9eb0cf83fed08b86768bd6046c9c526d8a571"
          ],
          "data": "0x0000000000000000000000000000000000000000000000000000000000000000",
          "blockHash": "0xd375a28f47270edca6f4292fea448d20d18e525d6c68286e97528ab6a07231a5",
          "blockNumber": "0x94eb02",
          "blockTimestamp": "0x69301020",
          "transactionHash": "0x4ef4b497532945f83e908716e9f8879040e136b19541d53256baafccb1672bc9",
          "transactionIndex": "0x72",
          "logIndex": "0x1cd",
          "removed": false
        }
      ],
      "logsBloom": "0x00000000000000000000000000000000000000000000000000000000000000000000000000000000000000000000000000000080000000000000000000000000000000000000000000000008000000000000000000000000000000000000000000000001000000020000100000000000000000000000004000000010002000000000100000000000000000000000000000000000000800000000000000000800000000000001000800000000400000000000000000400000000000000000000000000002000000000000000000000000000000000008000000000000000000000000000000000000000000080000000000060000040000000000000000000000",
      "type": "0x2",
      "transactionHash": "0x4ef4b497532945f83e908716e9f8879040e136b19541d53256baafccb1672bc9",
      "transactionIndex": "0x72",
      "blockHash": "0xd375a28f47270edca6f4292fea448d20d18e525d6c68286e97528ab6a07231a5",
      "blockNumber": "0x94eb02",
      "gasUsed": "0xa354",
      "effectiveGasPrice": "0xf4248",
      "from": "0x23e9eb0cf83fed08b86768bd6046c9c526d8a571",
      "to": "0xa306de4195a2f2f09796ad7f40568ccea370fb84",
      "contractAddress": null
    },
    {
      "status": "0x1",
      "cumulativeGasUsed": "0x15a7987",
      "logs": [
        {
          "address": "0x935665f89387c3f4ec5f0e9071b9d6259634a9f1",
          "topics": [
            "0xc0e523490dd523c33b1878c9eb14ff46991e3f5b2cd33710918618f2a39cba1b",
            "0x0000000000000000000000000fb0b765d0857759ef1a8bd6bda244773c563fcb"
          ],
          "data": "0x0000000000000000000000000000000000000000000000000000000000000000",
          "blockHash": "0xd375a28f47270edca6f4292fea448d20d18e525d6c68286e97528ab6a07231a5",
          "blockNumber": "0x94eb02",
          "blockTimestamp": "0x69301020",
          "transactionHash": "0x6c32d1aa2180b35df3ec300b9d9b245584d7233e28332793cfef7327974c9747",
          "transactionIndex": "0x73",
          "logIndex": "0x1ce",
          "removed": false
        },
        {
          "address": "0x0fb0b765d0857759ef1a8bd6bda244773c563fcb",
          "topics": [
            "0xddf252ad1be2c89b69c2b068fc378daa952ba7f163c4a11628f55a4df523b3ef",
            "0x000000000000000000000000935665f89387c3f4ec5f0e9071b9d6259634a9f1",
            "0x0000000000000000000000009f95c3d9e5ad043e0d6462cea9d46074f26cb374"
          ],
          "data": "0x0000000000000000000000000000000000000000000000000000000000000000",
          "blockHash": "0xd375a28f47270edca6f4292fea448d20d18e525d6c68286e97528ab6a07231a5",
          "blockNumber": "0x94eb02",
          "blockTimestamp": "0x69301020",
          "transactionHash": "0x6c32d1aa2180b35df3ec300b9d9b245584d7233e28332793cfef7327974c9747",
          "transactionIndex": "0x73",
          "logIndex": "0x1cf",
          "removed": false
        }
      ],
      "logsBloom": "0x00000000000000000000000000000000001000000000200000000000000000000000000000000000000000000000000000000000000000000000000000100000000000000010000000000008000000080000000000000000000200000000000000000001000000000000000000000000000000000000004000000010002000000000000000000000000000000000000000000000000000000000000000000810000000000000000000000000400000000000000000400000000000000000010000000002000000000000000000000000000000000008000000000008000000000000000000000000000000080000000000000000040000000000000000000000",
      "type": "0x2",
      "transactionHash": "0x6c32d1aa2180b35df3ec300b9d9b245584d7233e28332793cfef7327974c9747",
      "transactionIndex": "0x73",
      "blockHash": "0xd375a28f47270edca6f4292fea448d20d18e525d6c68286e97528ab6a07231a5",
      "blockNumber": "0x94eb02",
      "gasUsed": "0xa354",
      "effectiveGasPrice": "0xf4248",
      "from": "0x23e9eb0cf83fed08b86768bd6046c9c526d8a571",
      "to": "0x935665f89387c3f4ec5f0e9071b9d6259634a9f1",
      "contractAddress": null
    },
    {
      "status": "0x1",
      "cumulativeGasUsed": "0x15b2aeb",
      "logs": [
        {
          "address": "0xf50f83a2addb8e419d68211f0b83dd920ee912a1",
          "topics": [
            "0xc0e523490dd523c33b1878c9eb14ff46991e3f5b2cd33710918618f2a39cba1b",
            "0x0000000000000000000000000fb0b765d0857759ef1a8bd6bda244773c563fcb"
          ],
          "data": "0x0000000000000000000000000000000000000000000152d02c7e14af68000000",
          "blockHash": "0xd375a28f47270edca6f4292fea448d20d18e525d6c68286e97528ab6a07231a5",
          "blockNumber": "0x94eb02",
          "blockTimestamp": "0x69301020",
          "transactionHash": "0x40c11ca94c72d02e30a79a30af8f6c8104c6a2a478bf2e145f1df1ade4205c8d",
          "transactionIndex": "0x74",
          "logIndex": "0x1d0",
          "removed": false
        },
        {
          "address": "0x0fb0b765d0857759ef1a8bd6bda244773c563fcb",
          "topics": [
            "0xddf252ad1be2c89b69c2b068fc378daa952ba7f163c4a11628f55a4df523b3ef",
            "0x000000000000000000000000f50f83a2addb8e419d68211f0b83dd920ee912a1",
            "0x000000000000000000000000815782e3aa944301a746968e03e5a65846b22e17"
          ],
          "data": "0x0000000000000000000000000000000000000000000152d02c7e14af68000000",
          "blockHash": "0xd375a28f47270edca6f4292fea448d20d18e525d6c68286e97528ab6a07231a5",
          "blockNumber": "0x94eb02",
          "blockTimestamp": "0x69301020",
          "transactionHash": "0x40c11ca94c72d02e30a79a30af8f6c8104c6a2a478bf2e145f1df1ade4205c8d",
          "transactionIndex": "0x74",
          "logIndex": "0x1d1",
          "removed": false
        }
      ],
      "logsBloom": "0x00000000000000000000000000000000000000000000000000000000000010000000000000000000000000000004000000020000000000000000000000000000000000000000000000000008000000000000000000000000000000001000000000000001000000000000000000000000000000000000004001000010002000000000000000000000000000000000000000000000000000000000000000000800000000000000000000000010400000000000000000400000000000000000000000000002000000000001020000000000000000000008000000000000001000000000000000000000000000080000000000000000040000000000000000000000",
      "type": "0x2",
      "transactionHash": "0x40c11ca94c72d02e30a79a30af8f6c8104c6a2a478bf2e145f1df1ade4205c8d",
      "transactionIndex": "0x74",
      "blockHash": "0xd375a28f47270edca6f4292fea448d20d18e525d6c68286e97528ab6a07231a5",
      "blockNumber": "0x94eb02",
      "gasUsed": "0xb164",
      "effectiveGasPrice": "0xf4248",
      "from": "0x23e9eb0cf83fed08b86768bd6046c9c526d8a571",
      "to": "0xf50f83a2addb8e419d68211f0b83dd920ee912a1",
      "contractAddress": null
    },
    {
      "status": "0x1",
      "cumulativeGasUsed": "0x15bccf6",
      "logs": [
        {
          "address": "0x023042f45e1246d0afe0182824c08f2b6c8df79e",
          "topics": [
            "0xc0e523490dd523c33b1878c9eb14ff46991e3f5b2cd33710918618f2a39cba1b",
            "0x0000000000000000000000000fb0b765d0857759ef1a8bd6bda244773c563fcb"
          ],
          "data": "0x0000000000000000000000000000000000000000000000000000000000000000",
          "blockHash": "0xd375a28f47270edca6f4292fea448d20d18e525d6c68286e97528ab6a07231a5",
          "blockNumber": "0x94eb02",
          "blockTimestamp": "0x69301020",
          "transactionHash": "0xc845bb21e0e740721260b8d0bda37074ff1c467cb28d41499788b8e097ee3ef1",
          "transactionIndex": "0x75",
          "logIndex": "0x1d2",
          "removed": false
        },
        {
          "address": "0x0fb0b765d0857759ef1a8bd6bda244773c563fcb",
          "topics": [
            "0xddf252ad1be2c89b69c2b068fc378daa952ba7f163c4a11628f55a4df523b3ef",
            "0x000000000000000000000000023042f45e1246d0afe0182824c08f2b6c8df79e",
            "0x000000000000000000000000ebe261c8c5c8ac997a9b313d01ffca9fbadad3e9"
          ],
          "data": "0x0000000000000000000000000000000000000000000000000000000000000000",
          "blockHash": "0xd375a28f47270edca6f4292fea448d20d18e525d6c68286e97528ab6a07231a5",
          "blockNumber": "0x94eb02",
          "blockTimestamp": "0x69301020",
          "transactionHash": "0xc845bb21e0e740721260b8d0bda37074ff1c467cb28d41499788b8e097ee3ef1",
          "transactionIndex": "0x75",
          "logIndex": "0x1d3",
          "removed": false
        }
      ],
      "logsBloom": "0x00000000000000800000000000000000000000000000000000000000000000000000000000000000000000000000000000000000000000008000000000000000000000000000000000000028000000000000000000000000000000000000000000000001000000000000000000000000000000000000004000000010002000000000000000000000000001000000000000000000000000000000000000000800000000020000000000000000400080000000000000400000000000000000000000000002000000000001000001000000000000000008000000000000000000000000000000000000000000080001000000000000040000000000000000000000",
      "type": "0x2",
      "transactionHash": "0xc845bb21e0e740721260b8d0bda37074ff1c467cb28d41499788b8e097ee3ef1",
      "transactionIndex": "0x75",
      "blockHash": "0xd375a28f47270edca6f4292fea448d20d18e525d6c68286e97528ab6a07231a5",
      "blockNumber": "0x94eb02",
      "gasUsed": "0xa20b",
      "effectiveGasPrice": "0xf4248",
      "from": "0x23e9eb0cf83fed08b86768bd6046c9c526d8a571",
      "to": "0x023042f45e1246d0afe0182824c08f2b6c8df79e",
      "contractAddress": null
    }
  ],
  "libraries": [],
  "pending": [],
  "returns": {},
  "timestamp": 1764757536975,
  "chain": 11155111,
  "commit": null
}