{
  "transactions": [
    {
      "hash": "0x377302fb05737d51df4271ba00b7f715b4b8e84c3844cac9f84447bea19d5c3b",
      "transactionType": "CALL",
      "contractName": null,
      "contractAddress": "0x7e78dac2a277692b0506e761bcef149054de8873",
      "function": "release(address)",
      "arguments": [
        "0xfc5C2FED5e497163B344258AC65f34a1E1FEd935"
      ],
      "transaction": {
        "from": "0x23e9eb0cf83fed08b86768bd6046c9c526d8a571",
        "to": "0x7e78dac2a277692b0506e761bcef149054de8873",
        "gas": "0x122c7",
        "value": "0x0",
        "input": "0x19165587000000000000000000000000fc5c2fed5e497163b344258ac65f34a1e1fed935",
        "nonce": "0x1c",
        "chainId": "0xaa36a7"
      },
      "additionalContracts": [],
      "isFixedGasLimit": false
    }
  ],
  "receipts": [
    {
      "status": "0x1",
      "cumulativeGasUsed": "0x9569fe",
      "logs": [
        {
          "address": "0x7e78dac2a277692b0506e761bcef149054de8873",
          "topics": [
            "0xc0e523490dd523c33b1878c9eb14ff46991e3f5b2cd33710918618f2a39cba1b",
            "0x000000000000000000000000fc5c2fed5e497163b344258ac65f34a1e1fed935"
          ],
          "data": "0x000000000000000000000000000000000000000000000000188906a9748a2630",
          "blockHash": "0xdc02883cfc1c900cb40cb4112066666774455d0ae55dfd97585bb5d49495b617",
          "blockNumber": "0x94ea0b",
          "blockTimestamp": "0x6930048c",
          "transactionHash": "0x377302fb05737d51df4271ba00b7f715b4b8e84c3844cac9f84447bea19d5c3b",
          "transactionIndex": "0x33",
          "logIndex": "0x11d",
          "removed": false
        },
        {
          "address": "0xfc5c2fed5e497163b344258ac65f34a1e1fed935",
          "topics": [
            "0xddf252ad1be2c89b69c2b068fc378daa952ba7f163c4a11628f55a4df523b3ef",
            "0x0000000000000000000000007e78dac2a277692b0506e761bcef149054de8873",
            "0x00000000000000000000000023e9eb0cf83fed08b86768bd6046c9c526d8a571"
          ],
          "data": "0x000000000000000000000000000000000000000000000000188906a9748a2630",
          "blockHash": "0xdc02883cfc1c900cb40cb4112066666774455d0ae55dfd97585bb5d49495b617",
          "blockNumber": "0x94ea0b",
          "blockTimestamp": "0x6930048c",
          "transactionHash": "0x377302fb05737d51df4271ba00b7f715b4b8e84c3844cac9f84447bea19d5c3b",
          "transactionIndex": "0x33",
          "logIndex": "0x11e",
          "removed": false
        }
      ],
      "logsBloom": "0x00000000000000000004010000000000000000000000000000000000000000000000000000000000000000000000000000000000000200000000000000000000000000000000000000000008000000000000000000000000000000400000000000000000000000000000100000000000000008000080000000000010002000000001100000000000000000000000000000000000000800800000000000000000000008000000000000000400000000000000000000500000000000000000000000000002000000000000000000000000000040000000000000000000000000000000000000000000000000080000000000000000000000000000000000000000",
      "type": "0x2",
      "transactionHash": "0x377302fb05737d51df4271ba00b7f715b4b8e84c3844cac9f84447bea19d5c3b",
      "transactionIndex": "0x33",
      "blockHash": "0xdc02883cfc1c900cb40cb4112066666774455d0ae55dfd97585bb5d49495b617",
      "blockNumber": "0x94ea0b",
      "gasUsed": "0xc6d3",
      "effectiveGasPrice": "0x103b91",
      "from": "0x23e9eb0cf83fed08b86768bd6046c9c526d8a571",
      "to": "0x7e78dac2a277692b0506e761bcef149054de8873",
      "contractAddress": null
    }
  ],
  "libraries": [],
  "pending": [],
  "returns": {},
  "timestamp": 1764754573562,
  "chain": 11155111,
  "commit": null
}