{
  "transactions": [
    {
      "hash": "0x9c89f1e05470ba7bd9961c87a8acfa042ba85382d5f9ee5b427313b025023e10",
      "transactionType": "CALL",
      "contractName": null,
      "contractAddress": "0x7e78dac2a277692b0506e761bcef149054de8873",
      "function": "release(address)",
      "arguments": [
        "0xfc5C2FED5e497163B344258AC65f34a1E1FEd935"
      ],
      "transaction": {
        "from": "0x23e9eb0cf83fed08b86768bd6046c9c526d8a571",
        "to": "0x7e78dac2a277692b0506e761bcef149054de8873",
        "gas": "0x1e628",
        "value": "0x0",
        "input": "0x19165587000000000000000000000000fc5c2fed5e497163b344258ac65f34a1e1fed935",
        "nonce": "0x1a",
        "chainId": "0xaa36a7"
      },
      "additionalContracts": [],
      "isFixedGasLimit": false
    }
  ],
  "receipts": [
    {
      "status": "0x1",
      "cumulativeGasUsed": "0x1157884",
      "logs": [
        {
          "address": "0x7e78dac2a277692b0506e761bcef149054de8873",
          "topics": [
            "0xc0e523490dd523c33b1878c9eb14ff46991e3f5b2cd33710918618f2a39cba1b",
            "0x000000000000000000000000fc5c2fed5e497163b344258ac65f34a1e1fed935"
          ],
          "data": "0x000000000000000000000000000000000000000000000000abbf2ea22fc70b51",
          "blockHash": "0xf869e54b1e3ef0ca39dd94dc17a19d42b19ee90b11815f5cc2e3dcbb491a781e",
          "blockNumber": "0x94e9fe",
          "blockTimestamp": "0x693003f0",
          "transactionHash": "0x9c89f1e05470ba7bd9961c87a8acfa042ba85382d5f9ee5b427313b025023e10",
          "transactionIndex": "0x37",
          "logIndex": "0x6a",
          "removed": false
        },
        {
          "address": "0xfc5c2fed5e497163b344258ac65f34a1e1fed935",
          "topics": [
            "0xddf252ad1be2c89b69c2b068fc378daa952ba7f163c4a11628f55a4df523b3ef",
            "0x0000000000000000000000007e78dac2a277692b0506e761bcef149054de8873",
            "0x00000000000000000000000023e9eb0cf83fed08b86768bd6046c9c526d8a571"
          ],
          "data": "0x000000000000000000000000000000000000000000000000abbf2ea22fc70b51",
          "blockHash": "0xf869e54b1e3ef0ca39dd94dc17a19d42b19ee90b11815f5cc2e3dcbb491a781e",
          "blockNumber": "0x94e9fe",
          "blockTimestamp": "0x693003f0",
          "transactionHash": "0x9c89f1e05470ba7bd9961c87a8acfa042ba85382d5f9ee5b427313b025023e10",
          "transactionIndex": "0x37",
          "logIndex": "0x6b",
          "removed": false
        }
      ],
      "logsBloom": "0x00000000000000000004010000000000000000000000000000000000000000000000000000000000000000000000000000000000000200000000000000000000000000000000000000000008000000000000000000000000000000400000000000000000000000000000100000000000000008000080000000000010002000000001100000000000000000000000000000000000000800800000000000000000000008000000000000000400000000000000000000500000000000000000000000000002000000000000000000000000000040000000000000000000000000000000000000000000000000080000000000000000000000000000000000000000",
      "type": "0x2",
      "transactionHash": "0x9c89f1e05470ba7bd9961c87a8acfa042ba85382d5f9ee5b427313b025023e10",
      "transactionIndex": "0x37",
      "blockHash": "0xf869e54b1e3ef0ca39dd94dc17a19d42b19ee90b11815f5cc2e3dcbb491a781e",
      "blockNumber": "0x94e9fe",
      "gasUsed": "0x14c6b",
      "effectiveGasPrice": "0x106742",
      "from": "0x23e9eb0cf83fed08b86768bd6046c9c526d8a571",
      "to": "0x7e78dac2a277692b0506e761bcef149054de8873",
      "contractAddress": null
    }
  ],
  "libraries": [],
  "pending": [],
  "returns": {},
  "timestamp": 1764754417422,
  "chain": 11155111,
  "commit": null
}